{
    "contractName": "vestor",
    "abi": [
        {
            "anonymous": false,
            "inputs": [
                {
                    "indexed": true,
                    "internalType": "uint256",
                    "name": "contractId",
                    "type": "uint256"
                },
                {
                    "indexed": true,
                    "internalType": "address",
                    "name": "_tokencontractaddress",
                    "type": "address"
                },
                {
                    "indexed": true,
                    "internalType": "address[]",
                    "name": "_investors",
                    "type": "address[]"
                },
                {
                    "indexed": false,
                    "internalType": "uint256[]",
                    "name": "amountperinvestors",
                    "type": "uint256[]"
                },
                {
                    "indexed": false,
                    "internalType": "uint256",
                    "name": "_vestingPeriod",
                    "type": "uint256"
                }
            ],
            "name": "HTLCERC20New",
            "type": "event"
        },
        {
            "anonymous": false,
            "inputs": [
                {
                    "indexed": true,
                    "internalType": "address",
                    "name": "investoraddress",
                    "type": "address"
                },
                {
                    "indexed": true,
                    "internalType": "uint256",
                    "name": "contractId",
                    "type": "uint256"
                }
            ],
            "name": "HTLCERC20Withdraw",
            "type": "event"
        },
        {
            "inputs": [
                {
                    "internalType": "uint256[]",
                    "name": "_numbers",
                    "type": "uint256[]"
                }
            ],
            "name": "addforamount",
            "outputs": [
                {
                    "internalType": "uint256",
                    "name": "",
                    "type": "uint256"
                }
            ],
            "stateMutability": "pure",
            "type": "function"
        },
        {
            "inputs": [
                {
                    "internalType": "uint256",
                    "name": "_contractid",
                    "type": "uint256"
                }
            ],
            "name": "claimtokens",
            "outputs": [],
            "stateMutability": "nonpayable",
            "type": "function"
        },
        {
            "inputs": [
                {
                    "internalType": "address",
                    "name": "_address",
                    "type": "address"
                }
            ],
            "name": "fetchcontractsCreated",
            "outputs": [
                {
                    "internalType": "uint256[]",
                    "name": "",
                    "type": "uint256[]"
                }
            ],
            "stateMutability": "view",
            "type": "function"
        },
        {
            "inputs": [
                {
                    "internalType": "address",
                    "name": "_address",
                    "type": "address"
                }
            ],
            "name": "fetchcontractswhitelisted",
            "outputs": [
                {
                    "internalType": "uint256[]",
                    "name": "",
                    "type": "uint256[]"
                }
            ],
            "stateMutability": "view",
            "type": "function"
        },
        {
            "inputs": [
                {
                    "internalType": "uint256",
                    "name": "_contractId",
                    "type": "uint256"
                }
            ],
            "name": "getContract",
            "outputs": [
                {
                    "internalType": "address",
                    "name": "_tokencontractaddress",
                    "type": "address"
                },
                {
                    "internalType": "address",
                    "name": "tokenvestor",
                    "type": "address"
                },
                {
                    "internalType": "uint256",
                    "name": "_TotalAmount",
                    "type": "uint256"
                },
                {
                    "internalType": "uint256",
                    "name": "_vestingPeriod",
                    "type": "uint256"
                }
            ],
            "stateMutability": "view",
            "type": "function"
        },
        {
            "inputs": [
                {
                    "internalType": "address",
                    "name": "",
                    "type": "address"
                },
                {
                    "internalType": "uint256",
                    "name": "",
                    "type": "uint256"
                }
            ],
            "name": "idcountbyinvestor",
            "outputs": [
                {
                    "internalType": "uint256",
                    "name": "",
                    "type": "uint256"
                }
            ],
            "stateMutability": "view",
            "type": "function"
        },
        {
            "inputs": [
                {
                    "internalType": "address",
                    "name": "",
                    "type": "address"
                },
                {
                    "internalType": "uint256",
                    "name": "",
                    "type": "uint256"
                }
            ],
            "name": "idsbyaddress",
            "outputs": [
                {
                    "internalType": "uint256",
                    "name": "",
                    "type": "uint256"
                }
            ],
            "stateMutability": "view",
            "type": "function"
        },
        {
            "inputs": [
                {
                    "internalType": "address",
                    "name": "_user",
                    "type": "address"
                },
                {
                    "internalType": "uint256",
                    "name": "_Contractid",
                    "type": "uint256"
                }
            ],
            "name": "isWhitelisted",
            "outputs": [
                {
                    "internalType": "bool",
                    "name": "",
                    "type": "bool"
                }
            ],
            "stateMutability": "view",
            "type": "function"
        },
        {
            "inputs": [
                {
                    "internalType": "address",
                    "name": "tokencontractaddress",
                    "type": "address"
                },
                {
                    "internalType": "address[]",
                    "name": "investors",
                    "type": "address[]"
                },
                {
                    "internalType": "uint256",
                    "name": "vestingPeriod",
                    "type": "uint256"
                },
                {
                    "internalType": "uint256[]",
                    "name": "amountperinvestors",
                    "type": "uint256[]"
                },
                {
                    "internalType": "uint256",
                    "name": "startperiod",
                    "type": "uint256"
                },
                {
                    "internalType": "uint256",
                    "name": "cliffperiod",
                    "type": "uint256"
                }
            ],
            "name": "vestTokens",
            "outputs": [],
            "stateMutability": "payable",
            "type": "function"
        }
    ],
    "bytecode": "608060405234801561001057600080fd5b506111f6806100206000396000f3fe6080604052600436106100865760003560e01c80637329b02e116100595780637329b02e1461015a578063830639ac1461016f57806397f1825f1461019f57806398e2d313146101bf578063be499781146101df57600080fd5b80630ab54bee1461008b5780630d1bf693146100c1578063511ceb27146100e15780636ebc8c861461010f575b600080fd5b34801561009757600080fd5b506100ab6100a6366004610e0a565b6101ff565b6040516100b89190610e2c565b60405180910390f35b3480156100cd57600080fd5b506100ab6100dc366004610e0a565b61026b565b3480156100ed57600080fd5b506101016100fc366004610e86565b6102d5565b6040519081526020016100b8565b34801561011b57600080fd5b5061012f61012a366004610f44565b610324565b604080516001600160a01b0395861681529490931660208501529183015260608201526080016100b8565b61016d610168366004610fa9565b6103da565b005b34801561017b57600080fd5b5061018f61018a366004611042565b6109f2565b60405190151581526020016100b8565b3480156101ab57600080fd5b506101016101ba366004611042565b610a70565b3480156101cb57600080fd5b506101016101da366004611042565b610aa1565b3480156101eb57600080fd5b5061016d6101fa366004610f44565b610abd565b6001600160a01b03811660009081526007602090815260409182902080548351818402810184019094528084526060939283018282801561025f57602002820191906000526020600020905b81548152602001906001019080831161024b575b50505050509050919050565b6001600160a01b03811660009081526006602090815260409182902080548351818402810184019094528084526060939283018282801561025f576020028201919060005260206000209081548152602001906001019080831161024b5750505050509050919050565b60008060005b835181101561031d578381815181106102f6576102f661106c565b6020026020010151826103099190611098565b915080610315816110b0565b9150506102db565b5092915050565b60008060008061034b856000908152600260205260409020546001600160a01b0316151590565b15156000036103a15760405162461bcd60e51b815260206004820152601760248201527f636f6e7472616374696420646f65736e7420657869737400000000000000000060448201526064015b60405180910390fd5b50505060009182525060026020819052604090912080549181015460058201546006909201546001600160a01b03938416949390911692565b8733866104198787808060200260200160405190810160405280939291908181526020018383602002808284376000920191909152506102d592505050565b61042391906110c9565b604051636eb1769f60e11b81526001600160a01b03838116600483015230602483015282919085169063dd62ed3e90604401602060405180830381865afa158015610472573d6000803e3d6000fd5b505050506040513d601f19601f8201168201806040525081019061049691906110e8565b146105185760405162461bcd60e51b815260206004820152604660248201527f5468652048544c43206d7573742068617665206265656e2064657369676e617460448201527f656420616e20617070726f766564207370656e64657220666f722074686520746064820152651bdad95b925960d21b608482015260a401610398565b6000886105578989808060200260200160405190810160405280939291908181526020018383602002808284376000920191909152506102d592505050565b61056191906110c9565b905060005b8a8110156107515742600460008e8e858181106105855761058561106c565b905060200201602081019061059a9190610e0a565b6001600160a01b03166001600160a01b0316815260200190815260200160002060006105c560015490565b8152602081019190915260400160002055898989838181106105e9576105e961106c565b905060200201356105fa91906110c9565b600560008e8e858181106106105761061061106c565b90506020020160208101906106259190610e0a565b6001600160a01b03166001600160a01b03168152602001908152602001600020600061065060015490565b815260200190815260200160002081905550600760008d8d848181106106785761067861106c565b905060200201602081019061068d9190610e0a565b6001600160a01b031681526020810191909152604001600020600154815460018101835560009283526020909220909101558888828181106106d1576106d161106c565b90506020020135600360008e8e858181106106ee576106ee61106c565b90506020020160208101906107039190610e0a565b6001600160a01b03166001600160a01b03168152602001908152602001600020600061072e60015490565b815260208101919091526040016000205580610749816110b0565b915050610566565b5033600090815260066020526040902060015481546001810183556000928352602092839020015560408051610120810182526001600160a01b038f16815281518d840281810185019093528d81529092838101928f918f9182918501908490808284376000920191909152505050908252503360208201526040016107d660015490565b8152602001898980806020026020016040519081016040528093929190818152602001838360200280828437600092018290525093855250505060208201849052604082018c905260608201899052608090910187905260029061083960015490565b8152602080820192909252604001600020825181546001600160a01b0319166001600160a01b03909116178155828201518051919261088092600185019290910190610d39565b5060408201516002820180546001600160a01b0319166001600160a01b0390921691909117905560608201516003820155608082015180516108cc916004840191602090910190610d9e565b5060a0820151600582015560c0820151600682015560e08201516007820155610100909101516008909101556040516323b872dd60e01b8152336004820152306024820152604481018290526001600160a01b038d16906323b872dd906064016020604051808303816000875af115801561094b573d6000803e3d6000fd5b505050506040513d601f19601f8201168201806040525081019061096f9190611101565b508a8a604051610980929190611123565b60405180910390208c6001600160a01b031661099b60015490565b7f142d94422d39c36c2233561907c7de876ecd78506c014aca4fce8c97f2f6f99e8b8b8e6040516109ce93929190611163565b60405180910390a46109e4600180546001019055565b505050505050505050505050565b6000818152600260205260408120815b60018201548111610a6357846001600160a01b0316826001018281548110610a2c57610a2c61106c565b6000918252602090912001546001600160a01b031603610a5157600192505050610a6a565b80610a5b816110b0565b915050610a02565b5060009150505b92915050565b60066020528160005260406000208181548110610a8c57600080fd5b90600052602060002001600091509150505481565b60076020528160005260406000208181548110610a8c57600080fd5b6000818152600260205260409020610ad533836109f2565b1515600003610b305760405162461bcd60e51b815260206004820152602160248201527f796f7520617265206e6f7420656c6769626c6520666f722074686520636c61696044820152606d60f81b6064820152608401610398565b8060070154421015610b845760405162461bcd60e51b815260206004820152601960248201527f76657374696e6720686173206e6f742079657420626567616e000000000000006044820152606401610398565b6008810154336000908152600460209081526040808320868452909152902054610bae90426111a9565b1015610c0f5760405162461bcd60e51b815260206004820152602a60248201527f7761697420666f7220796f757220636c69666620706572696f6420746f2062656044820152690818dbdb5c1b195d195960b21b6064820152608401610398565b336000818152600360209081526040808320868452825280832054938352600582528083208684529091528120549091610c48916111a9565b3360008181526005602090815260408083208884528252808320859055838352600480835281842089855283528184204290558754858552600384528285208a86529093529281902054905163a9059cbb60e01b81529283019390935260248201929092529192506001600160a01b03169063a9059cbb906044016020604051808303816000875af1158015610ce2573d6000803e3d6000fd5b505050506040513d601f19601f82011682018060405250810190610d069190611101565b50604051839033907f87270cb395fc52b3fcfbf0d913f40f3ca12a54d8f976688d9a0488ae4e93c1ec90600090a3505050565b828054828255906000526020600020908101928215610d8e579160200282015b82811115610d8e57825182546001600160a01b0319166001600160a01b03909116178255602090920191600190910190610d59565b50610d9a929150610dd9565b5090565b828054828255906000526020600020908101928215610d8e579160200282015b82811115610d8e578251825591602001919060010190610dbe565b5b80821115610d9a5760008155600101610dda565b80356001600160a01b0381168114610e0557600080fd5b919050565b600060208284031215610e1c57600080fd5b610e2582610dee565b9392505050565b6020808252825182820181905260009190848201906040850190845b81811015610e6457835183529284019291840191600101610e48565b50909695505050505050565b634e487b7160e01b600052604160045260246000fd5b60006020808385031215610e9957600080fd5b823567ffffffffffffffff80821115610eb157600080fd5b818501915085601f830112610ec557600080fd5b813581811115610ed757610ed7610e70565b8060051b604051601f19603f83011681018181108582111715610efc57610efc610e70565b604052918252848201925083810185019188831115610f1a57600080fd5b938501935b82851015610f3857843584529385019392850192610f1f565b98975050505050505050565b600060208284031215610f5657600080fd5b5035919050565b60008083601f840112610f6f57600080fd5b50813567ffffffffffffffff811115610f8757600080fd5b6020830191508360208260051b8501011115610fa257600080fd5b9250929050565b60008060008060008060008060c0898b031215610fc557600080fd5b610fce89610dee565b9750602089013567ffffffffffffffff80821115610feb57600080fd5b610ff78c838d01610f5d565b909950975060408b0135965060608b013591508082111561101757600080fd5b506110248b828c01610f5d565b999c989b5096999598969760808701359660a0013595509350505050565b6000806040838503121561105557600080fd5b61105e83610dee565b946020939093013593505050565b634e487b7160e01b600052603260045260246000fd5b634e487b7160e01b600052601160045260246000fd5b600082198211156110ab576110ab611082565b500190565b6000600182016110c2576110c2611082565b5060010190565b60008160001904831182151516156110e3576110e3611082565b500290565b6000602082840312156110fa57600080fd5b5051919050565b60006020828403121561111357600080fd5b81518015158114610e2557600080fd5b60008184825b85811015611158576001600160a01b0361114283610dee565b1683526020928301929190910190600101611129565b509095945050505050565b6040808252810183905260006001600160fb1b0384111561118357600080fd5b8360051b8086606085013760009083016060019081526020909201929092529392505050565b6000828210156111bb576111bb611082565b50039056fea2646970667358221220eb66177590d98a928da6ce3830af5bf45525833c08ee0f5c5699bc4e4e1d48d964736f6c634300080e0033",
    "sourcePath": "c:/Users/datta/OneDrive/Desktop/dynamic images/contracts/vestor.sol",
    "compiler": {
        "name": "solc",
        "version": "0.8.14+commit.80d49f37"
    },
    "functionHashes": {
        "addforamount(uint256[])": "511ceb27",
        "claimtokens(uint256)": "be499781",
        "fetchcontractsCreated(address)": "0d1bf693",
        "fetchcontractswhitelisted(address)": "0ab54bee",
        "getContract(uint256)": "6ebc8c86",
        "idcountbyinvestor(address,uint256)": "98e2d313",
        "idsbyaddress(address,uint256)": "97f1825f",
        "isWhitelisted(address,uint256)": "830639ac",
        "vestTokens(address,address[],uint256,uint256[],uint256,uint256)": "7329b02e"
    },
    "gasEstimates": {
        "creation": {
            "codeDepositCost": "919600",
            "executionCost": "955",
            "totalCost": "920555"
        },
        "external": {
            "addforamount(uint256[])": "infinite",
            "claimtokens(uint256)": "infinite",
            "fetchcontractsCreated(address)": "infinite",
            "fetchcontractswhitelisted(address)": "infinite",
            "getContract(uint256)": "11236",
            "idcountbyinvestor(address,uint256)": "4810",
            "idsbyaddress(address,uint256)": "4788",
            "isWhitelisted(address,uint256)": "infinite",
            "vestTokens(address,address[],uint256,uint256[],uint256,uint256)": "infinite"
        },
        "internal": {
            "haveContract(uint256)": "infinite"
        }
    }
}