{
  "_format": "hh-sol-artifact-1",
  "contractName": "vestor",
  "sourceName": "contracts/vestor.sol",
  "abi": [
    {
      "anonymous": false,
      "inputs": [
        {
          "indexed": false,
          "internalType": "address",
          "name": "previousAdmin",
          "type": "address"
        },
        {
          "indexed": false,
          "internalType": "address",
          "name": "newAdmin",
          "type": "address"
        }
      ],
      "name": "AdminChanged",
      "type": "event"
    },
    {
      "anonymous": false,
      "inputs": [
        {
          "indexed": true,
          "internalType": "address",
          "name": "beacon",
          "type": "address"
        }
      ],
      "name": "BeaconUpgraded",
      "type": "event"
    },
    {
      "anonymous": false,
      "inputs": [
        {
          "indexed": true,
          "internalType": "uint256",
          "name": "contractId",
          "type": "uint256"
        },
        {
          "indexed": true,
          "internalType": "address",
          "name": "_tokencontractaddress",
          "type": "address"
        },
        {
          "indexed": true,
          "internalType": "address[]",
          "name": "_investors",
          "type": "address[]"
        },
        {
          "indexed": false,
          "internalType": "uint256[]",
          "name": "amountperinvestors",
          "type": "uint256[]"
        },
        {
          "indexed": false,
          "internalType": "uint256",
          "name": "_vestingPeriod",
          "type": "uint256"
        }
      ],
      "name": "HTLCERC20New",
      "type": "event"
    },
    {
      "anonymous": false,
      "inputs": [
        {
          "indexed": true,
          "internalType": "address",
          "name": "investoraddress",
          "type": "address"
        },
        {
          "indexed": true,
          "internalType": "uint256",
          "name": "contractId",
          "type": "uint256"
        }
      ],
      "name": "HTLCERC20Withdraw",
      "type": "event"
    },
    {
      "anonymous": false,
      "inputs": [
        {
          "indexed": false,
          "internalType": "uint8",
          "name": "version",
          "type": "uint8"
        }
      ],
      "name": "Initialized",
      "type": "event"
    },
    {
      "anonymous": false,
      "inputs": [
        {
          "indexed": true,
          "internalType": "address",
          "name": "previousOwner",
          "type": "address"
        },
        {
          "indexed": true,
          "internalType": "address",
          "name": "newOwner",
          "type": "address"
        }
      ],
      "name": "OwnershipTransferred",
      "type": "event"
    },
    {
      "anonymous": false,
      "inputs": [
        {
          "indexed": true,
          "internalType": "address",
          "name": "implementation",
          "type": "address"
        }
      ],
      "name": "Upgraded",
      "type": "event"
    },
    {
      "inputs": [
        {
          "internalType": "uint256[]",
          "name": "_numbers",
          "type": "uint256[]"
        }
      ],
      "name": "addforamount",
      "outputs": [
        {
          "internalType": "uint256",
          "name": "",
          "type": "uint256"
        }
      ],
      "stateMutability": "pure",
      "type": "function"
    },
    {
      "inputs": [
        {
          "internalType": "uint256[]",
          "name": "_numbers",
          "type": "uint256[]"
        },
        {
          "internalType": "uint256",
          "name": "_vestingperiod",
          "type": "uint256"
        },
        {
          "internalType": "uint256",
          "name": "cliffperiod",
          "type": "uint256"
        }
      ],
      "name": "addforinvestors",
      "outputs": [
        {
          "internalType": "uint256",
          "name": "",
          "type": "uint256"
        }
      ],
      "stateMutability": "pure",
      "type": "function"
    },
    {
      "inputs": [
        {
          "internalType": "address",
          "name": "",
          "type": "address"
        },
        {
          "internalType": "uint256",
          "name": "",
          "type": "uint256"
        }
      ],
      "name": "amountofinvestorsbyindex",
      "outputs": [
        {
          "internalType": "uint256",
          "name": "",
          "type": "uint256"
        }
      ],
      "stateMutability": "view",
      "type": "function"
    },
    {
      "inputs": [
        {
          "internalType": "uint256",
          "name": "_contractid",
          "type": "uint256"
        }
      ],
      "name": "claimtokens",
      "outputs": [],
      "stateMutability": "nonpayable",
      "type": "function"
    },
    {
      "inputs": [
        {
          "internalType": "address",
          "name": "_address",
          "type": "address"
        }
      ],
      "name": "fetchcontractsCreated",
      "outputs": [
        {
          "internalType": "uint256[]",
          "name": "",
          "type": "uint256[]"
        }
      ],
      "stateMutability": "view",
      "type": "function"
    },
    {
      "inputs": [
        {
          "internalType": "address",
          "name": "_address",
          "type": "address"
        }
      ],
      "name": "fetchcontractsamountbyaddress",
      "outputs": [
        {
          "internalType": "uint256[]",
          "name": "",
          "type": "uint256[]"
        }
      ],
      "stateMutability": "view",
      "type": "function"
    },
    {
      "inputs": [
        {
          "internalType": "address",
          "name": "_address",
          "type": "address"
        },
        {
          "internalType": "uint256",
          "name": "_id",
          "type": "uint256"
        }
      ],
      "name": "fetchcontractswhitelisted",
      "outputs": [
        {
          "internalType": "uint256",
          "name": "",
          "type": "uint256"
        }
      ],
      "stateMutability": "view",
      "type": "function"
    },
    {
      "inputs": [
        {
          "internalType": "uint256",
          "name": "_contractId",
          "type": "uint256"
        }
      ],
      "name": "getContract",
      "outputs": [
        {
          "internalType": "address",
          "name": "_tokencontractaddress",
          "type": "address"
        },
        {
          "internalType": "address",
          "name": "tokenvestor",
          "type": "address"
        },
        {
          "internalType": "uint256",
          "name": "_TotalAmount",
          "type": "uint256"
        },
        {
          "internalType": "uint256",
          "name": "_vestingPeriod",
          "type": "uint256"
        }
      ],
      "stateMutability": "view",
      "type": "function"
    },
    {
      "inputs": [
        {
          "internalType": "address",
          "name": "",
          "type": "address"
        },
        {
          "internalType": "uint256",
          "name": "",
          "type": "uint256"
        }
      ],
      "name": "idcountbyinvestor",
      "outputs": [
        {
          "internalType": "uint256",
          "name": "",
          "type": "uint256"
        }
      ],
      "stateMutability": "view",
      "type": "function"
    },
    {
      "inputs": [
        {
          "internalType": "address",
          "name": "",
          "type": "address"
        },
        {
          "internalType": "uint256",
          "name": "",
          "type": "uint256"
        }
      ],
      "name": "idsbyaddress",
      "outputs": [
        {
          "internalType": "uint256",
          "name": "",
          "type": "uint256"
        }
      ],
      "stateMutability": "view",
      "type": "function"
    },
    {
      "inputs": [],
      "name": "initialize",
      "outputs": [],
      "stateMutability": "nonpayable",
      "type": "function"
    },
    {
      "inputs": [
        {
          "internalType": "address",
          "name": "_user",
          "type": "address"
        },
        {
          "internalType": "uint256",
          "name": "_Contractid",
          "type": "uint256"
        }
      ],
      "name": "isWhitelisted",
      "outputs": [
        {
          "internalType": "bool",
          "name": "",
          "type": "bool"
        }
      ],
      "stateMutability": "view",
      "type": "function"
    },
    {
      "inputs": [],
      "name": "owner",
      "outputs": [
        {
          "internalType": "address",
          "name": "",
          "type": "address"
        }
      ],
      "stateMutability": "view",
      "type": "function"
    },
    {
      "inputs": [],
      "name": "proxiableUUID",
      "outputs": [
        {
          "internalType": "bytes32",
          "name": "",
          "type": "bytes32"
        }
      ],
      "stateMutability": "view",
      "type": "function"
    },
    {
      "inputs": [],
      "name": "renounceOwnership",
      "outputs": [],
      "stateMutability": "nonpayable",
      "type": "function"
    },
    {
      "inputs": [
        {
          "internalType": "address",
          "name": "",
          "type": "address"
        },
        {
          "internalType": "uint256",
          "name": "",
          "type": "uint256"
        }
      ],
      "name": "timesclaimablebyinvestors",
      "outputs": [
        {
          "internalType": "uint256",
          "name": "",
          "type": "uint256"
        }
      ],
      "stateMutability": "view",
      "type": "function"
    },
    {
      "inputs": [
        {
          "internalType": "address",
          "name": "newOwner",
          "type": "address"
        }
      ],
      "name": "transferOwnership",
      "outputs": [],
      "stateMutability": "nonpayable",
      "type": "function"
    },
    {
      "inputs": [
        {
          "internalType": "uint256",
          "name": "_AmountinWei",
          "type": "uint256"
        }
      ],
      "name": "updatecontractfees",
      "outputs": [],
      "stateMutability": "nonpayable",
      "type": "function"
    },
    {
      "inputs": [
        {
          "internalType": "address",
          "name": "newImplementation",
          "type": "address"
        }
      ],
      "name": "upgradeTo",
      "outputs": [],
      "stateMutability": "nonpayable",
      "type": "function"
    },
    {
      "inputs": [
        {
          "internalType": "address",
          "name": "newImplementation",
          "type": "address"
        },
        {
          "internalType": "bytes",
          "name": "data",
          "type": "bytes"
        }
      ],
      "name": "upgradeToAndCall",
      "outputs": [],
      "stateMutability": "payable",
      "type": "function"
    },
    {
      "inputs": [
        {
          "internalType": "address",
          "name": "",
          "type": "address"
        },
        {
          "internalType": "uint256",
          "name": "",
          "type": "uint256"
        }
      ],
      "name": "userclaimingstart",
      "outputs": [
        {
          "internalType": "uint256",
          "name": "",
          "type": "uint256"
        }
      ],
      "stateMutability": "view",
      "type": "function"
    },
    {
      "inputs": [
        {
          "internalType": "address",
          "name": "tokencontractaddress",
          "type": "address"
        },
        {
          "internalType": "address[]",
          "name": "investors",
          "type": "address[]"
        },
        {
          "internalType": "uint256",
          "name": "vestingPeriod",
          "type": "uint256"
        },
        {
          "internalType": "uint256[]",
          "name": "amountperinvestors",
          "type": "uint256[]"
        },
        {
          "internalType": "uint256",
          "name": "startperiod",
          "type": "uint256"
        },
        {
          "internalType": "uint256",
          "name": "cliffperiod",
          "type": "uint256"
        }
      ],
      "name": "vestTokens",
      "outputs": [],
      "stateMutability": "payable",
      "type": "function"
    },
    {
      "inputs": [
        {
          "internalType": "address",
          "name": "_address",
          "type": "address"
        }
      ],
      "name": "withdraw",
      "outputs": [],
      "stateMutability": "nonpayable",
      "type": "function"
    }
  ],
  "bytecode": "0x60a06040523073ffffffffffffffffffffffffffffffffffffffff1660809073ffffffffffffffffffffffffffffffffffffffff1660601b81525034801561004657600080fd5b5060805160601c613fd761008160003960008181610646015281816106d501528181610887015281816109160152610b360152613fd76000f3fe6080604052600436106101405760003560e01c80638129fc1c116100b6578063aae5de501161006f578063aae5de501461047b578063b5df6494146104a4578063be499781146104e1578063c9e2fd0a1461050a578063ec699d4d14610547578063f2fde38b1461058457610140565b80638129fc1c14610345578063830639ac1461035c5780638da5cb5b1461039957806397f1825f146103c457806398e2d313146104015780639efb086f1461043e57610140565b806351cff8d91161010857806351cff8d91461024157806352d1902d1461026a57806362406596146102955780636ebc8c86146102d2578063715018a6146103125780637329b02e1461032957610140565b80630d1bf693146101455780633659cfe6146101825780634722ff87146101ab5780634f1ef286146101e8578063511ceb2714610204575b600080fd5b34801561015157600080fd5b5061016c60048036038101906101679190612a9e565b6105ad565b6040516101799190613352565b60405180910390f35b34801561018e57600080fd5b506101a960048036038101906101a49190612a9e565b610644565b005b3480156101b757600080fd5b506101d260048036038101906101cd9190612c5b565b6107f3565b6040516101df9190613607565b60405180910390f35b61020260048036038101906101fd9190612b8a565b610885565b005b34801561021057600080fd5b5061022b60048036038101906102269190612c1a565b6109c2565b6040516102389190613607565b60405180910390f35b34801561024d57600080fd5b5061026860048036038101906102639190612a9e565b610a3c565b005b34801561027657600080fd5b5061027f610b32565b60405161028c919061338f565b60405180910390f35b3480156102a157600080fd5b506102bc60048036038101906102b79190612bde565b610beb565b6040516102c99190613607565b60405180910390f35b3480156102de57600080fd5b506102f960048036038101906102f49190612d14565b610c46565b60405161030994939291906132b2565b60405180910390f35b34801561031e57600080fd5b50610327610d17565b005b610343600480360381019061033e9190612ac7565b610d9f565b005b34801561035157600080fd5b5061035a611627565b005b34801561036857600080fd5b50610383600480360381019061037e9190612bde565b6116c3565b6040516103909190613374565b60405180910390f35b3480156103a557600080fd5b506103ae6117b1565b6040516103bb9190613237565b60405180910390f35b3480156103d057600080fd5b506103eb60048036038101906103e69190612bde565b6117db565b6040516103f89190613607565b60405180910390f35b34801561040d57600080fd5b5061042860048036038101906104239190612bde565b61180c565b6040516104359190613607565b60405180910390f35b34801561044a57600080fd5b5061046560048036038101906104609190612bde565b61183d565b6040516104729190613607565b60405180910390f35b34801561048757600080fd5b506104a2600480360381019061049d9190612d14565b611862565b005b3480156104b057600080fd5b506104cb60048036038101906104c69190612bde565b6118e8565b6040516104d89190613607565b60405180910390f35b3480156104ed57600080fd5b5061050860048036038101906105039190612d14565b61190d565b005b34801561051657600080fd5b50610531600480360381019061052c9190612bde565b611d96565b60405161053e9190613607565b60405180910390f35b34801561055357600080fd5b5061056e60048036038101906105699190612a9e565b611dbb565b60405161057b9190613352565b60405180910390f35b34801561059057600080fd5b506105ab60048036038101906105a69190612a9e565b611e52565b005b606060cf60008373ffffffffffffffffffffffffffffffffffffffff1673ffffffffffffffffffffffffffffffffffffffff16815260200190815260200160002080548060200260200160405190810160405280929190818152602001828054801561063857602002820191906000526020600020905b815481526020019060010190808311610624575b50505050509050919050565b7f000000000000000000000000000000000000000000000000000000000000000073ffffffffffffffffffffffffffffffffffffffff163073ffffffffffffffffffffffffffffffffffffffff1614156106d3576040517f08c379a00000000000000000000000000000000000000000000000000000000081526004016106ca90613447565b60405180910390fd5b7f000000000000000000000000000000000000000000000000000000000000000073ffffffffffffffffffffffffffffffffffffffff16610712611f4a565b73ffffffffffffffffffffffffffffffffffffffff1614610768576040517f08c379a000000000000000000000000000000000000000000000000000000000815260040161075f90613487565b60405180910390fd5b61077181611fa1565b6107f081600067ffffffffffffffff8111156107b6577f4e487b7100000000000000000000000000000000000000000000000000000000600052604160045260246000fd5b6040519080825280601f01601f1916602001820160405280156107e85781602001600182028036833780820191505090505b506000612020565b50565b60008060005b85518110156108635785818151811061083b577f4e487b7100000000000000000000000000000000000000000000000000000000600052603260045260246000fd5b60200260200101518261084e9190613748565b9150808061085b90613941565b9150506107f9565b5082848261087191906137cf565b61087b919061379e565b9150509392505050565b7f000000000000000000000000000000000000000000000000000000000000000073ffffffffffffffffffffffffffffffffffffffff163073ffffffffffffffffffffffffffffffffffffffff161415610914576040517f08c379a000000000000000000000000000000000000000000000000000000000815260040161090b90613447565b60405180910390fd5b7f000000000000000000000000000000000000000000000000000000000000000073ffffffffffffffffffffffffffffffffffffffff16610953611f4a565b73ffffffffffffffffffffffffffffffffffffffff16146109a9576040517f08c379a00000000000000000000000000000000000000000000000000000000081526004016109a090613487565b60405180910390fd5b6109b282611fa1565b6109be82826001612020565b5050565b60008060005b8351811015610a3257838181518110610a0a577f4e487b7100000000000000000000000000000000000000000000000000000000600052603260045260246000fd5b602002602001015182610a1d9190613748565b91508080610a2a90613941565b9150506109c8565b5080915050919050565b610a4461219d565b73ffffffffffffffffffffffffffffffffffffffff16610a626117b1565b73ffffffffffffffffffffffffffffffffffffffff1614610ab8576040517f08c379a0000000000000000000000000000000000000000000000000000000008152600401610aaf90613567565b60405180910390fd5b60008173ffffffffffffffffffffffffffffffffffffffff1647604051610ade90613222565b60006040518083038185875af1925050503d8060008114610b1b576040519150601f19603f3d011682016040523d82523d6000602084013e610b20565b606091505b5050905080610b2e57600080fd5b5050565b60007f000000000000000000000000000000000000000000000000000000000000000073ffffffffffffffffffffffffffffffffffffffff163073ffffffffffffffffffffffffffffffffffffffff1614610bc2576040517f08c379a0000000000000000000000000000000000000000000000000000000008152600401610bb9906134a7565b60405180910390fd5b7f360894a13ba1a3210667c828492db98dca3e2076cc3735a920a3ca505d382bbc60001b905090565b600060ce60008473ffffffffffffffffffffffffffffffffffffffff1673ffffffffffffffffffffffffffffffffffffffff168152602001908152602001600020600083815260200190815260200160002054905092915050565b60008060008060001515610c59866121a5565b15151415610c9c576040517f08c379a0000000000000000000000000000000000000000000000000000000008152600401610c9390613587565b60405180910390fd5b600060cb600087815260200190815260200160002090508060000160009054906101000a900473ffffffffffffffffffffffffffffffffffffffff168160020160009054906101000a900473ffffffffffffffffffffffffffffffffffffffff16826005015483600601549450945094509450509193509193565b610d1f61219d565b73ffffffffffffffffffffffffffffffffffffffff16610d3d6117b1565b73ffffffffffffffffffffffffffffffffffffffff1614610d93576040517f08c379a0000000000000000000000000000000000000000000000000000000008152600401610d8a90613567565b60405180910390fd5b610d9d6000612214565b565b8733610ded868680806020026020016040519081016040528093929190818152602001838360200280828437600081840152601f19601f8201169050808301925050505050505088856107f3565b808373ffffffffffffffffffffffffffffffffffffffff1663dd62ed3e84306040518363ffffffff1660e01b8152600401610e29929190613252565b60206040518083038186803b158015610e4157600080fd5b505afa158015610e55573d6000803e3d6000fd5b505050506040513d601f19601f82011682018060405250810190610e799190612d3d565b14610eb9576040517f08c379a0000000000000000000000000000000000000000000000000000000008152600401610eb0906133e7565b60405180910390fd5b60c954341015610ec857600080fd5b6000610f16888880806020026020016040519081016040528093929190818152602001838360200280828437600081840152601f19601f820116905080830192505050505050508a876107f3565b905060005b8b8b905081101561128a574260cd60008e8e85818110610f64577f4e487b7100000000000000000000000000000000000000000000000000000000600052603260045260246000fd5b9050602002016020810190610f799190612a9e565b73ffffffffffffffffffffffffffffffffffffffff1673ffffffffffffffffffffffffffffffffffffffff1681526020019081526020016000206000610fbf60ca6122da565b81526020019081526020016000208190555088888281811061100a577f4e487b7100000000000000000000000000000000000000000000000000000000600052603260045260246000fd5b9050602002013560ce60008e8e8581811061104e577f4e487b7100000000000000000000000000000000000000000000000000000000600052603260045260246000fd5b90506020020160208101906110639190612a9e565b73ffffffffffffffffffffffffffffffffffffffff1673ffffffffffffffffffffffffffffffffffffffff16815260200190815260200160002060006110a960ca6122da565b81526020019081526020016000208190555060d060008d8d848181106110f8577f4e487b7100000000000000000000000000000000000000000000000000000000600052603260045260246000fd5b905060200201602081019061110d9190612a9e565b73ffffffffffffffffffffffffffffffffffffffff1673ffffffffffffffffffffffffffffffffffffffff16815260200190815260200160002061115160ca6122da565b9080600181540180825580915050600190039060005260206000200160009091909190915055858a8a8a848181106111b2577f4e487b7100000000000000000000000000000000000000000000000000000000600052603260045260246000fd5b905060200201356111c391906137cf565b6111cd919061379e565b60cc60008e8e8581811061120a577f4e487b7100000000000000000000000000000000000000000000000000000000600052603260045260246000fd5b905060200201602081019061121f9190612a9e565b73ffffffffffffffffffffffffffffffffffffffff1673ffffffffffffffffffffffffffffffffffffffff168152602001908152602001600020600061126560ca6122da565b815260200190815260200160002081905550808061128290613941565b915050610f1b565b5060cf60003373ffffffffffffffffffffffffffffffffffffffff1673ffffffffffffffffffffffffffffffffffffffff1681526020019081526020016000206112d460ca6122da565b90806001815401808255809150506001900390600052602060002001600090919091909150556040518061012001604052808d73ffffffffffffffffffffffffffffffffffffffff1681526020018c8c80806020026020016040519081016040528093929190818152602001838360200280828437600081840152601f19601f8201169050808301925050505050505081526020013373ffffffffffffffffffffffffffffffffffffffff16815260200161138f60ca6122da565b8152602001898980806020026020016040519081016040528093929190818152602001838360200280828437600081840152601f19601f8201169050808301925050505050505081526020018281526020018a81526020018781526020018681525060cb60006113ff60ca6122da565b815260200190815260200160002060008201518160000160006101000a81548173ffffffffffffffffffffffffffffffffffffffff021916908373ffffffffffffffffffffffffffffffffffffffff16021790555060208201518160010190805190602001906114709291906127af565b5060408201518160020160006101000a81548173ffffffffffffffffffffffffffffffffffffffff021916908373ffffffffffffffffffffffffffffffffffffffff1602179055506060820151816003015560808201518160040190805190602001906114de929190612839565b5060a0820151816005015560c0820151816006015560e0820151816007015561010082015181600801559050508b73ffffffffffffffffffffffffffffffffffffffff166323b872dd3330846040518463ffffffff1660e01b81526004016115489392919061327b565b602060405180830381600087803b15801561156257600080fd5b505af1158015611576573d6000803e3d6000fd5b505050506040513d601f19601f8201168201806040525081019061159a9190612cc2565b508a8a6040516115ab9291906131f2565b60405180910390208c73ffffffffffffffffffffffffffffffffffffffff166115d460ca6122da565b7f142d94422d39c36c2233561907c7de876ecd78506c014aca4fce8c97f2f6f99e8b8b8e60405161160793929190613320565b60405180910390a461161960ca6122e8565b505050505050505050505050565b600061163360016122fe565b90508015611657576001600060016101000a81548160ff0219169083151502179055505b61165f6123ee565b611667612447565b80156116c05760008060016101000a81548160ff0219169083151502179055507f7f26b83ff96e1f2b6a682f133852f6798a09c465da95921460cefb384740249860016040516116b791906133aa565b60405180910390a15b50565b60008060cb6000848152602001908152602001600020905060005b816001018054905081116117a4578473ffffffffffffffffffffffffffffffffffffffff1682600101828154811061173f577f4e487b7100000000000000000000000000000000000000000000000000000000600052603260045260246000fd5b9060005260206000200160009054906101000a900473ffffffffffffffffffffffffffffffffffffffff1673ffffffffffffffffffffffffffffffffffffffff161415611791576001925050506117ab565b808061179c90613941565b9150506116de565b5060009150505b92915050565b6000603360009054906101000a900473ffffffffffffffffffffffffffffffffffffffff16905090565b60cf60205281600052604060002081815481106117f757600080fd5b90600052602060002001600091509150505481565b60d0602052816000526040600020818154811061182857600080fd5b90600052602060002001600091509150505481565b60cd602052816000526040600020602052806000526040600020600091509150505481565b61186a61219d565b73ffffffffffffffffffffffffffffffffffffffff166118886117b1565b73ffffffffffffffffffffffffffffffffffffffff16146118de576040517f08c379a00000000000000000000000000000000000000000000000000000000081526004016118d590613567565b60405180910390fd5b8060c98190555050565b60cc602052816000526040600020602052806000526040600020600091509150505481565b600060cb600083815260200190815260200160002090506000151561193233846116c3565b15151415611975576040517f08c379a000000000000000000000000000000000000000000000000000000000815260040161196c90613467565b60405180910390fd5b80600701544210156119bc576040517f08c379a00000000000000000000000000000000000000000000000000000000081526004016119b390613427565b60405180910390fd5b600060cc60003373ffffffffffffffffffffffffffffffffffffffff1673ffffffffffffffffffffffffffffffffffffffff16815260200190815260200160002060008481526020019081526020016000205411611a4f576040517f08c379a0000000000000000000000000000000000000000000000000000000008152600401611a46906135e7565b60405180910390fd5b806008015460cd60003373ffffffffffffffffffffffffffffffffffffffff1673ffffffffffffffffffffffffffffffffffffffff16815260200190815260200160002060008481526020019081526020016000205442611ab09190613829565b1015611af1576040517f08c379a0000000000000000000000000000000000000000000000000000000008152600401611ae890613527565b60405180910390fd5b600060ce60003373ffffffffffffffffffffffffffffffffffffffff1673ffffffffffffffffffffffffffffffffffffffff16815260200190815260200160002060008481526020019081526020016000205460cc60003373ffffffffffffffffffffffffffffffffffffffff1673ffffffffffffffffffffffffffffffffffffffff168152602001908152602001600020600085815260200190815260200160002054611b9f9190613829565b90508060cc60003373ffffffffffffffffffffffffffffffffffffffff1673ffffffffffffffffffffffffffffffffffffffff1681526020019081526020016000206000858152602001908152602001600020819055504260cd60003373ffffffffffffffffffffffffffffffffffffffff1673ffffffffffffffffffffffffffffffffffffffff1681526020019081526020016000206000858152602001908152602001600020819055508160000160009054906101000a900473ffffffffffffffffffffffffffffffffffffffff1673ffffffffffffffffffffffffffffffffffffffff1663a9059cbb3360ce60003373ffffffffffffffffffffffffffffffffffffffff1673ffffffffffffffffffffffffffffffffffffffff1681526020019081526020016000206000878152602001908152602001600020546040518363ffffffff1660e01b8152600401611cfa9291906132f7565b602060405180830381600087803b158015611d1457600080fd5b505af1158015611d28573d6000803e3d6000fd5b505050506040513d601f19601f82011682018060405250810190611d4c9190612cc2565b50823373ffffffffffffffffffffffffffffffffffffffff167f87270cb395fc52b3fcfbf0d913f40f3ca12a54d8f976688d9a0488ae4e93c1ec60405160405180910390a3505050565b60ce602052816000526040600020602052806000526040600020600091509150505481565b606060d060008373ffffffffffffffffffffffffffffffffffffffff1673ffffffffffffffffffffffffffffffffffffffff168152602001908152602001600020805480602002602001604051908101604052809291908181526020018280548015611e4657602002820191906000526020600020905b815481526020019060010190808311611e32575b50505050509050919050565b611e5a61219d565b73ffffffffffffffffffffffffffffffffffffffff16611e786117b1565b73ffffffffffffffffffffffffffffffffffffffff1614611ece576040517f08c379a0000000000000000000000000000000000000000000000000000000008152600401611ec590613567565b60405180910390fd5b600073ffffffffffffffffffffffffffffffffffffffff168173ffffffffffffffffffffffffffffffffffffffff161415611f3e576040517f08c379a0000000000000000000000000000000000000000000000000000000008152600401611f3590613407565b60405180910390fd5b611f4781612214565b50565b6000611f787f360894a13ba1a3210667c828492db98dca3e2076cc3735a920a3ca505d382bbc60001b612498565b60000160009054906101000a900473ffffffffffffffffffffffffffffffffffffffff16905090565b611fa961219d565b73ffffffffffffffffffffffffffffffffffffffff16611fc76117b1565b73ffffffffffffffffffffffffffffffffffffffff161461201d576040517f08c379a000000000000000000000000000000000000000000000000000000000815260040161201490613567565b60405180910390fd5b50565b61204c7f4910fdfa16fed3260ed0e7147f7cc6da11a60208b5b9406d12a635614ffd914360001b6124a2565b60000160009054906101000a900460ff16156120705761206b836124ac565b612198565b8273ffffffffffffffffffffffffffffffffffffffff166352d1902d6040518163ffffffff1660e01b815260040160206040518083038186803b1580156120b657600080fd5b505afa9250505080156120e757506040513d601f19601f820116820180604052508101906120e49190612ceb565b60015b612126576040517f08c379a000000000000000000000000000000000000000000000000000000000815260040161211d90613507565b60405180910390fd5b7f360894a13ba1a3210667c828492db98dca3e2076cc3735a920a3ca505d382bbc60001b811461218b576040517f08c379a0000000000000000000000000000000000000000000000000000000008152600401612182906134c7565b60405180910390fd5b50612197838383612565565b5b505050565b600033905090565b60008073ffffffffffffffffffffffffffffffffffffffff1660cb600084815260200190815260200160002060000160009054906101000a900473ffffffffffffffffffffffffffffffffffffffff1673ffffffffffffffffffffffffffffffffffffffff1614159050919050565b6000603360009054906101000a900473ffffffffffffffffffffffffffffffffffffffff16905081603360006101000a81548173ffffffffffffffffffffffffffffffffffffffff021916908373ffffffffffffffffffffffffffffffffffffffff1602179055508173ffffffffffffffffffffffffffffffffffffffff168173ffffffffffffffffffffffffffffffffffffffff167f8be0079c531659141344cd1fd0a4f28419497f9722a3daafe3b4186f6b6457e060405160405180910390a35050565b600081600001549050919050565b6001816000016000828254019250508190555050565b60008060019054906101000a900460ff16156123755760018260ff1614801561232d575061232b30612591565b155b61236c576040517f08c379a0000000000000000000000000000000000000000000000000000000008152600401612363906134e7565b60405180910390fd5b600090506123e9565b8160ff1660008054906101000a900460ff1660ff16106123ca576040517f08c379a00000000000000000000000000000000000000000000000000000000081526004016123c1906134e7565b60405180910390fd5b816000806101000a81548160ff021916908360ff160217905550600190505b919050565b600060019054906101000a900460ff1661243d576040517f08c379a0000000000000000000000000000000000000000000000000000000008152600401612434906135c7565b60405180910390fd5b6124456125b4565b565b600060019054906101000a900460ff16612496576040517f08c379a000000000000000000000000000000000000000000000000000000000815260040161248d906135c7565b60405180910390fd5b565b6000819050919050565b6000819050919050565b6124b581612591565b6124f4576040517f08c379a00000000000000000000000000000000000000000000000000000000081526004016124eb90613547565b60405180910390fd5b806125217f360894a13ba1a3210667c828492db98dca3e2076cc3735a920a3ca505d382bbc60001b612498565b60000160006101000a81548173ffffffffffffffffffffffffffffffffffffffff021916908373ffffffffffffffffffffffffffffffffffffffff16021790555050565b61256e83612615565b60008251118061257b5750805b1561258c5761258a8383612664565b505b505050565b6000808273ffffffffffffffffffffffffffffffffffffffff163b119050919050565b600060019054906101000a900460ff16612603576040517f08c379a00000000000000000000000000000000000000000000000000000000081526004016125fa906135c7565b60405180910390fd5b61261361260e61219d565b612214565b565b61261e816124ac565b8073ffffffffffffffffffffffffffffffffffffffff167fbc7cd75a20ee27fd9adebab32041f755214dbc6bffa90cc0225b39da2e5c2d3b60405160405180910390a250565b606061266f83612591565b6126ae576040517f08c379a00000000000000000000000000000000000000000000000000000000081526004016126a5906135a7565b60405180910390fd5b6000808473ffffffffffffffffffffffffffffffffffffffff16846040516126d6919061320b565b600060405180830381855af49150503d8060008114612711576040519150601f19603f3d011682016040523d82523d6000602084013e612716565b606091505b509150915061273e8282604051806060016040528060278152602001613f7b60279139612748565b9250505092915050565b60608315612758578290506127a8565b60008351111561276b5782518084602001fd5b816040517f08c379a000000000000000000000000000000000000000000000000000000000815260040161279f91906133c5565b60405180910390fd5b9392505050565b828054828255906000526020600020908101928215612828579160200282015b828111156128275782518260006101000a81548173ffffffffffffffffffffffffffffffffffffffff021916908373ffffffffffffffffffffffffffffffffffffffff160217905550916020019190600101906127cf565b5b5090506128359190612886565b5090565b828054828255906000526020600020908101928215612875579160200282015b82811115612874578251825591602001919060010190612859565b5b5090506128829190612886565b5090565b5b8082111561289f576000816000905550600101612887565b5090565b60006128b66128b184613647565b613622565b905080838252602082019050828560208602820111156128d557600080fd5b60005b8581101561290557816128eb8882612a74565b8452602084019350602083019250506001810190506128d8565b5050509392505050565b600061292261291d84613673565b613622565b90508281526020810184848401111561293a57600080fd5b6129458482856138ce565b509392505050565b60008135905061295c81613f1e565b92915050565b60008083601f84011261297457600080fd5b8235905067ffffffffffffffff81111561298d57600080fd5b6020830191508360208202830111156129a557600080fd5b9250929050565b60008083601f8401126129be57600080fd5b8235905067ffffffffffffffff8111156129d757600080fd5b6020830191508360208202830111156129ef57600080fd5b9250929050565b600082601f830112612a0757600080fd5b8135612a178482602086016128a3565b91505092915050565b600081519050612a2f81613f35565b92915050565b600081519050612a4481613f4c565b92915050565b600082601f830112612a5b57600080fd5b8135612a6b84826020860161290f565b91505092915050565b600081359050612a8381613f63565b92915050565b600081519050612a9881613f63565b92915050565b600060208284031215612ab057600080fd5b6000612abe8482850161294d565b91505092915050565b60008060008060008060008060c0898b031215612ae357600080fd5b6000612af18b828c0161294d565b985050602089013567ffffffffffffffff811115612b0e57600080fd5b612b1a8b828c01612962565b97509750506040612b2d8b828c01612a74565b955050606089013567ffffffffffffffff811115612b4a57600080fd5b612b568b828c016129ac565b94509450506080612b698b828c01612a74565b92505060a0612b7a8b828c01612a74565b9150509295985092959890939650565b60008060408385031215612b9d57600080fd5b6000612bab8582860161294d565b925050602083013567ffffffffffffffff811115612bc857600080fd5b612bd485828601612a4a565b9150509250929050565b60008060408385031215612bf157600080fd5b6000612bff8582860161294d565b9250506020612c1085828601612a74565b9150509250929050565b600060208284031215612c2c57600080fd5b600082013567ffffffffffffffff811115612c4657600080fd5b612c52848285016129f6565b91505092915050565b600080600060608486031215612c7057600080fd5b600084013567ffffffffffffffff811115612c8a57600080fd5b612c96868287016129f6565b9350506020612ca786828701612a74565b9250506040612cb886828701612a74565b9150509250925092565b600060208284031215612cd457600080fd5b6000612ce284828501612a20565b91505092915050565b600060208284031215612cfd57600080fd5b6000612d0b84828501612a35565b91505092915050565b600060208284031215612d2657600080fd5b6000612d3484828501612a74565b91505092915050565b600060208284031215612d4f57600080fd5b6000612d5d84828501612a89565b91505092915050565b6000612d728383612da5565b60208301905092915050565b6000612d8a83836131d4565b60208301905092915050565b612d9f8161385d565b82525050565b612dae8161385d565b82525050565b6000612dc083856136f9565b9350612dcb826136a4565b8060005b85811015612e0457612de18284613731565b612deb8882612d66565b9750612df6836136df565b925050600181019050612dcf565b5085925050509392505050565b6000612e1d8385613704565b93507f07ffffffffffffffffffffffffffffffffffffffffffffffffffffffffffffff831115612e4c57600080fd5b602083029250612e5d8385846138ce565b82840190509392505050565b6000612e74826136be565b612e7e8185613704565b9350612e89836136ae565b8060005b83811015612eba578151612ea18882612d7e565b9750612eac836136ec565b925050600181019050612e8d565b5085935050505092915050565b612ed08161386f565b82525050565b612edf8161387b565b82525050565b6000612ef0826136c9565b612efa8185613715565b9350612f0a8185602086016138dd565b80840191505092915050565b612f1f816138bc565b82525050565b6000612f30826136d4565b612f3a8185613720565b9350612f4a8185602086016138dd565b612f5381613a17565b840191505092915050565b6000612f6b604683613720565b9150612f7682613a28565b606082019050919050565b6000612f8e602683613720565b9150612f9982613a9d565b604082019050919050565b6000612fb1601983613720565b9150612fbc82613aec565b602082019050919050565b6000612fd4602c83613720565b9150612fdf82613b15565b604082019050919050565b6000612ff7602183613720565b915061300282613b64565b604082019050919050565b600061301a602c83613720565b915061302582613bb3565b604082019050919050565b600061303d603883613720565b915061304882613c02565b604082019050919050565b6000613060602983613720565b915061306b82613c51565b604082019050919050565b6000613083602e83613720565b915061308e82613ca0565b604082019050919050565b60006130a6602e83613720565b91506130b182613cef565b604082019050919050565b60006130c9602a83613720565b91506130d482613d3e565b604082019050919050565b60006130ec602d83613720565b91506130f782613d8d565b604082019050919050565b600061310f602083613720565b915061311a82613ddc565b602082019050919050565b6000613132601783613720565b915061313d82613e05565b602082019050919050565b6000613155602683613720565b915061316082613e2e565b604082019050919050565b6000613178600083613715565b915061318382613e7d565b600082019050919050565b600061319b602b83613720565b91506131a682613e80565b604082019050919050565b60006131be602583613720565b91506131c982613ecf565b604082019050919050565b6131dd816138a5565b82525050565b6131ec816138a5565b82525050565b60006131ff828486612db4565b91508190509392505050565b60006132178284612ee5565b915081905092915050565b600061322d8261316b565b9150819050919050565b600060208201905061324c6000830184612d96565b92915050565b60006040820190506132676000830185612d96565b6132746020830184612d96565b9392505050565b60006060820190506132906000830186612d96565b61329d6020830185612d96565b6132aa60408301846131e3565b949350505050565b60006080820190506132c76000830187612d96565b6132d46020830186612d96565b6132e160408301856131e3565b6132ee60608301846131e3565b95945050505050565b600060408201905061330c6000830185612d96565b61331960208301846131e3565b9392505050565b6000604082019050818103600083015261333b818587612e11565b905061334a60208301846131e3565b949350505050565b6000602082019050818103600083015261336c8184612e69565b905092915050565b60006020820190506133896000830184612ec7565b92915050565b60006020820190506133a46000830184612ed6565b92915050565b60006020820190506133bf6000830184612f16565b92915050565b600060208201905081810360008301526133df8184612f25565b905092915050565b6000602082019050818103600083015261340081612f5e565b9050919050565b6000602082019050818103600083015261342081612f81565b9050919050565b6000602082019050818103600083015261344081612fa4565b9050919050565b6000602082019050818103600083015261346081612fc7565b9050919050565b6000602082019050818103600083015261348081612fea565b9050919050565b600060208201905081810360008301526134a08161300d565b9050919050565b600060208201905081810360008301526134c081613030565b9050919050565b600060208201905081810360008301526134e081613053565b9050919050565b6000602082019050818103600083015261350081613076565b9050919050565b6000602082019050818103600083015261352081613099565b9050919050565b60006020820190508181036000830152613540816130bc565b9050919050565b60006020820190508181036000830152613560816130df565b9050919050565b6000602082019050818103600083015261358081613102565b9050919050565b600060208201905081810360008301526135a081613125565b9050919050565b600060208201905081810360008301526135c081613148565b9050919050565b600060208201905081810360008301526135e08161318e565b9050919050565b60006020820190508181036000830152613600816131b1565b9050919050565b600060208201905061361c60008301846131e3565b92915050565b600061362c61363d565b90506136388282613910565b919050565b6000604051905090565b600067ffffffffffffffff821115613662576136616139e8565b5b602082029050602081019050919050565b600067ffffffffffffffff82111561368e5761368d6139e8565b5b61369782613a17565b9050602081019050919050565b6000819050919050565b6000819050602082019050919050565b600081519050919050565b600081519050919050565b600081519050919050565b6000602082019050919050565b6000602082019050919050565b600081905092915050565b600082825260208201905092915050565b600081905092915050565b600082825260208201905092915050565b6000613740602084018461294d565b905092915050565b6000613753826138a5565b915061375e836138a5565b9250827fffffffffffffffffffffffffffffffffffffffffffffffffffffffffffffffff038211156137935761379261398a565b5b828201905092915050565b60006137a9826138a5565b91506137b4836138a5565b9250826137c4576137c36139b9565b5b828204905092915050565b60006137da826138a5565b91506137e5836138a5565b9250817fffffffffffffffffffffffffffffffffffffffffffffffffffffffffffffffff048311821515161561381e5761381d61398a565b5b828202905092915050565b6000613834826138a5565b915061383f836138a5565b9250828210156138525761385161398a565b5b828203905092915050565b600061386882613885565b9050919050565b60008115159050919050565b6000819050919050565b600073ffffffffffffffffffffffffffffffffffffffff82169050919050565b6000819050919050565b600060ff82169050919050565b60006138c7826138af565b9050919050565b82818337600083830152505050565b60005b838110156138fb5780820151818401526020810190506138e0565b8381111561390a576000848401525b50505050565b61391982613a17565b810181811067ffffffffffffffff82111715613938576139376139e8565b5b80604052505050565b600061394c826138a5565b91507fffffffffffffffffffffffffffffffffffffffffffffffffffffffffffffffff82141561397f5761397e61398a565b5b600182019050919050565b7f4e487b7100000000000000000000000000000000000000000000000000000000600052601160045260246000fd5b7f4e487b7100000000000000000000000000000000000000000000000000000000600052601260045260246000fd5b7f4e487b7100000000000000000000000000000000000000000000000000000000600052604160045260246000fd5b6000601f19601f8301169050919050565b7f5468652048544c43206d7573742068617665206265656e2064657369676e617460008201527f656420616e20617070726f766564207370656e64657220666f7220746865207460208201527f6f6b656e49640000000000000000000000000000000000000000000000000000604082015250565b7f4f776e61626c653a206e6577206f776e657220697320746865207a65726f206160008201527f6464726573730000000000000000000000000000000000000000000000000000602082015250565b7f76657374696e6720686173206e6f742079657420626567616e00000000000000600082015250565b7f46756e6374696f6e206d7573742062652063616c6c6564207468726f7567682060008201527f64656c656761746563616c6c0000000000000000000000000000000000000000602082015250565b7f796f7520617265206e6f7420656c6769626c6520666f722074686520636c616960008201527f6d00000000000000000000000000000000000000000000000000000000000000602082015250565b7f46756e6374696f6e206d7573742062652063616c6c6564207468726f7567682060008201527f6163746976652070726f78790000000000000000000000000000000000000000602082015250565b7f555550535570677261646561626c653a206d757374206e6f742062652063616c60008201527f6c6564207468726f7567682064656c656761746563616c6c0000000000000000602082015250565b7f45524331393637557067726164653a20756e737570706f727465642070726f7860008201527f6961626c65555549440000000000000000000000000000000000000000000000602082015250565b7f496e697469616c697a61626c653a20636f6e747261637420697320616c72656160008201527f647920696e697469616c697a6564000000000000000000000000000000000000602082015250565b7f45524331393637557067726164653a206e657720696d706c656d656e7461746960008201527f6f6e206973206e6f742055555053000000000000000000000000000000000000602082015250565b7f7761697420666f7220796f757220636c69666620706572696f6420746f20626560008201527f20636f6d706c6574656400000000000000000000000000000000000000000000602082015250565b7f455243313936373a206e657720696d706c656d656e746174696f6e206973206e60008201527f6f74206120636f6e747261637400000000000000000000000000000000000000602082015250565b7f4f776e61626c653a2063616c6c6572206973206e6f7420746865206f776e6572600082015250565b7f636f6e7472616374696420646f65736e74206578697374000000000000000000600082015250565b7f416464726573733a2064656c65676174652063616c6c20746f206e6f6e2d636f60008201527f6e74726163740000000000000000000000000000000000000000000000000000602082015250565b50565b7f496e697469616c697a61626c653a20636f6e7472616374206973206e6f74206960008201527f6e697469616c697a696e67000000000000000000000000000000000000000000602082015250565b7f20616c6c206f6620796f757220746f6b656e732068617665206265656e20636c60008201527f61696d6564000000000000000000000000000000000000000000000000000000602082015250565b613f278161385d565b8114613f3257600080fd5b50565b613f3e8161386f565b8114613f4957600080fd5b50565b613f558161387b565b8114613f6057600080fd5b50565b613f6c816138a5565b8114613f7757600080fd5b5056fe416464726573733a206c6f772d6c6576656c2064656c65676174652063616c6c206661696c6564a2646970667358221220d57de5f3ade32686e48b48e623bd3db604cf2a987ec1e28c643525393a41c8db64736f6c63430008020033",
  "linkReferences": {},
  "deployedLinkReferences": {}
}